{
  "contractName": "HAMTaxCollector",
  "abi": [
    {
      "inputs": [
        {
          "internalType": "address",
          "name": "uniFactory_",
          "type": "address"
        },
        {
          "internalType": "address",
          "name": "uniRouter_",
          "type": "address"
        },
        {
          "internalType": "address",
          "name": "hamToken_",
          "type": "address"
        },
        {
          "internalType": "address",
          "name": "beneficiary_",
          "type": "address"
        },
        {
          "internalType": "address[]",
          "name": "farms",
          "type": "address[]"
        }
      ],
      "payable": false,
      "stateMutability": "nonpayable",
      "type": "constructor"
    },
    {
      "anonymous": false,
      "inputs": [
        {
          "indexed": false,
          "internalType": "uint256",
          "name": "amountIn",
          "type": "uint256"
        },
        {
          "indexed": false,
          "internalType": "uint256",
          "name": "amountOut",
          "type": "uint256"
        }
      ],
      "name": "TaxesCollected",
      "type": "event"
    },
    {
      "constant": true,
      "inputs": [],
      "name": "beneficiary",
      "outputs": [
        {
          "internalType": "address",
          "name": "",
          "type": "address"
        }
      ],
      "payable": false,
      "stateMutability": "view",
      "type": "function"
    },
    {
      "constant": true,
      "inputs": [
        {
          "internalType": "uint256",
          "name": "",
          "type": "uint256"
        }
      ],
      "name": "farmsToTax",
      "outputs": [
        {
          "internalType": "address",
          "name": "",
          "type": "address"
        }
      ],
      "payable": false,
      "stateMutability": "view",
      "type": "function"
    },
    {
      "constant": true,
      "inputs": [],
      "name": "hamToken",
      "outputs": [
        {
          "internalType": "contract HamToken",
          "name": "",
          "type": "address"
        }
      ],
      "payable": false,
      "stateMutability": "view",
      "type": "function"
    },
    {
      "constant": true,
      "inputs": [],
      "name": "uniFactory",
      "outputs": [
        {
          "internalType": "address",
          "name": "",
          "type": "address"
        }
      ],
      "payable": false,
      "stateMutability": "view",
      "type": "function"
    },
    {
      "constant": true,
      "inputs": [],
      "name": "uniRouter",
      "outputs": [
        {
          "internalType": "address",
          "name": "",
          "type": "address"
        }
      ],
      "payable": false,
      "stateMutability": "view",
      "type": "function"
    },
    {
      "constant": true,
      "inputs": [],
      "name": "weth",
      "outputs": [
        {
          "internalType": "address",
          "name": "",
          "type": "address"
        }
      ],
      "payable": false,
      "stateMutability": "view",
      "type": "function"
    },
    {
      "constant": false,
      "inputs": [
        {
          "internalType": "address",
          "name": "farm",
          "type": "address"
        }
      ],
      "name": "addFarm",
      "outputs": [],
      "payable": false,
      "stateMutability": "nonpayable",
      "type": "function"
    },
    {
      "constant": false,
      "inputs": [],
      "name": "collectTaxes",
      "outputs": [],
      "payable": false,
      "stateMutability": "nonpayable",
      "type": "function"
    }
  ],
  "bytecode": "0x6080604052600280546001600160a01b03191673c02aaa39b223fe8d0a0e5c4f27ead9083c756cc217905534801561003657600080fd5b50604051610d24380380610d24833981810160405260a081101561005957600080fd5b815160208301516040808501516060860151608087018051935195979496929591949193928201928464010000000082111561009457600080fd5b9083019060208201858111156100a957600080fd5b82518660208202830111640100000000821117156100c657600080fd5b82525081516020918201928201910280838360005b838110156100f35781810151838201526020016100db565b50505050919091016040525050600080546001600160a01b03808a166001600160a01b031992831617909255600180548984169083161790556003805488841690831617905560048054928716929091169190911790555050805161015f90600590602084019061016a565b5050505050506101f6565b8280548282559060005260206000209081019282156101bf579160200282015b828111156101bf57825182546001600160a01b0319166001600160a01b0390911617825560209092019160019091019061018a565b506101cb9291506101cf565b5090565b6101f391905b808211156101cb5780546001600160a01b03191681556001016101d5565b90565b610b1f806102056000396000f3fe608060405234801561001057600080fd5b50600436106100885760003560e01c8063841f00991161005b578063841f0099146100d8578063a0e47bf6146100e0578063aff7b07d146100e8578063e89e72e81461011b57610088565b806301b613a51461008d57806338af3eed146100975780633fc8cef3146100c857806376771d4b146100d0575b600080fd5b610095610138565b005b61009f6106ce565b6040805173ffffffffffffffffffffffffffffffffffffffff9092168252519081900360200190f35b61009f6106ea565b61009f610706565b61009f610722565b61009f61073e565b610095600480360360208110156100fe57600080fd5b503573ffffffffffffffffffffffffffffffffffffffff1661075a565b61009f6004803603602081101561013157600080fd5b5035610853565b60005b6005548110156101e4576005818154811061015257fe5b6000918252602082200154604080517fdfa20f0a000000000000000000000000000000000000000000000000000000008152905173ffffffffffffffffffffffffffffffffffffffff9092169263dfa20f0a9260048084019382900301818387803b1580156101c057600080fd5b505af11580156101d4573d6000803e3d6000fd5b50506001909201915061013b9050565b50600080546002546003546102159273ffffffffffffffffffffffffffffffffffffffff9081169281169116610887565b905060008190506000808273ffffffffffffffffffffffffffffffffffffffff16630902f1ac6040518163ffffffff1660e01b815260040160606040518083038186803b15801561026557600080fd5b505afa158015610279573d6000803e3d6000fd5b505050506040513d606081101561028f57600080fd5b508051602091820151600354604080517f70a0823100000000000000000000000000000000000000000000000000000000815230600482015290516dffffffffffffffffffffffffffff948516975093909216945060009373ffffffffffffffffffffffffffffffffffffffff909116926370a08231926024808201939291829003018186803b15801561032257600080fd5b505afa158015610336573d6000803e3d6000fd5b505050506040513d602081101561034c57600080fd5b5051600154604080517f054d50d4000000000000000000000000000000000000000000000000000000008152600481018490526024810187905260448101869052905192935060009273ffffffffffffffffffffffffffffffffffffffff9092169163054d50d491606480820192602092909190829003018186803b1580156103d457600080fd5b505afa1580156103e8573d6000803e3d6000fd5b505050506040513d60208110156103fe57600080fd5b50516040805160028082526060808301845293945090916020830190803883395050600354825192935073ffffffffffffffffffffffffffffffffffffffff169183915060009061044b57fe5b73ffffffffffffffffffffffffffffffffffffffff928316602091820292909201015260025482519116908290600190811061048357fe5b73ffffffffffffffffffffffffffffffffffffffff928316602091820292909201810191909152600154600480546040517f4a25d94a0000000000000000000000000000000000000000000000000000000081529182018881526024830188905290851660648301819052426084840181905260a060448501908152885160a486015288516060989690961696634a25d94a968c968c968c9695949093909260c490920191878201910280838360005b8381101561054b578181015183820152602001610533565b505050509050019650505050505050600060405180830381600087803b15801561057457600080fd5b505af1158015610588573d6000803e3d6000fd5b505050506040513d6000823e601f3d9081017fffffffffffffffffffffffffffffffffffffffffffffffffffffffffffffffe016820160405260208110156105cf57600080fd5b81019080805160405193929190846401000000008211156105ef57600080fd5b90830190602082018581111561060457600080fd5b825186602082028301116401000000008211171561062157600080fd5b82525081516020918201928201910280838360005b8381101561064e578181015183820152602001610636565b5050505090500160405250505090507ff2d9f3f00fc700757eb74f9aa3dba0e2eb1280e0c6e0cf65962cc055528d7a908160008151811061068b57fe5b6020026020010151826001815181106106a057fe5b6020026020010151604051808381526020018281526020019250505060405180910390a15050505050505050565b60045473ffffffffffffffffffffffffffffffffffffffff1681565b60025473ffffffffffffffffffffffffffffffffffffffff1681565b60005473ffffffffffffffffffffffffffffffffffffffff1681565b60035473ffffffffffffffffffffffffffffffffffffffff1681565b60015473ffffffffffffffffffffffffffffffffffffffff1681565b73ffffffffffffffffffffffffffffffffffffffff81166107dc57604080517f08c379a000000000000000000000000000000000000000000000000000000000815260206004820152600860248201527f216e6f6e7a65726f000000000000000000000000000000000000000000000000604482015290519081900360640190fd5b600580546001810182556000919091527f036b6384b5eca791c62761152d0c79bb0604c104a5fb6f4eb0703f3154bb3db00180547fffffffffffffffffffffffff00000000000000000000000000000000000000001673ffffffffffffffffffffffffffffffffffffffff92909216919091179055565b6005818154811061086057fe5b60009182526020909120015473ffffffffffffffffffffffffffffffffffffffff16905081565b60008060006108968585610972565b604080517fffffffffffffffffffffffffffffffffffffffff000000000000000000000000606094851b811660208084019190915293851b81166034830152825160288184030181526048830184528051908501207fff0000000000000000000000000000000000000000000000000000000000000060688401529a90941b9093166069840152607d8301989098527f96e8ac4277198ff8b6f785478aa9a39f403cb768dd02cbee326c3e7da348845f609d808401919091528851808403909101815260bd909201909752805196019590952095945050505050565b6000808273ffffffffffffffffffffffffffffffffffffffff168473ffffffffffffffffffffffffffffffffffffffff1614156109fa576040517f08c379a0000000000000000000000000000000000000000000000000000000008152600401808060200182810382526025815260200180610ac66025913960400191505060405180910390fd5b8273ffffffffffffffffffffffffffffffffffffffff168473ffffffffffffffffffffffffffffffffffffffff1610610a34578284610a37565b83835b909250905073ffffffffffffffffffffffffffffffffffffffff8216610abe57604080517f08c379a000000000000000000000000000000000000000000000000000000000815260206004820152601e60248201527f556e697377617056324c6962726172793a205a45524f5f414444524553530000604482015290519081900360640190fd5b925092905056fe556e697377617056324c6962726172793a204944454e544943414c5f414444524553534553a265627a7a72315820f6a48dd0a6462a8a5604072f671a224ea494e18d8b1419470b1cf1117bb3d44064736f6c63430005110032",
  "source": "pragma solidity ^0.5.0;\n\nimport \"../lib/IERC20.sol\";\nimport \"../lib/SafeERC20.sol\";\nimport \"../token/HAMTokenInterface.sol\";\nimport '../lib/IUniswapV2Pair.sol';\nimport '../lib/UniswapV2Library.sol';\n\ninterface FarmPool {\n    function withdrawTax() external;\n}\n\ninterface HamToken {\n    function transfer(address to, uint256 value) external returns(bool);\n    function transferFrom(address from, address to, uint256 value) external returns(bool);\n    function balanceOf(address who) external view returns(uint256);\n}\n\ninterface IUniswapV2Router01 {\n    function swapExactTokensForTokens(\n        uint amountIn,\n        uint amountOutMin,\n        address[] calldata path,\n        address to,\n        uint deadline\n    ) external returns (uint[] memory amounts);\n    function swapTokensForExactETH(uint amountOut, uint amountInMax, address[] calldata path, address to, uint deadline)\n    external\n    returns (uint[] memory amounts);\n    function swapExactTokensForETH(uint amountIn, uint amountOutMin, address[] calldata path, address to, uint deadline)\n    external\n    returns (uint[] memory amounts);\n\n    function quote(uint amountA, uint reserveA, uint reserveB) external pure returns (uint amountB);\n    function getAmountOut(uint amountIn, uint reserveIn, uint reserveOut) external pure returns (uint amountOut);\n}\n\ncontract HAMTaxCollector {\n    address public uniFactory;\n    address public uniRouter;\n    address public weth = 0xC02aaA39b223FE8D0A0e5C4F27eAD9083C756Cc2;\n    HamToken public hamToken;\n    address public beneficiary;\n    address[] public farmsToTax;\n\n    event TaxesCollected(uint256 amountIn, uint256 amountOut);\n\n    constructor(\n        address uniFactory_,\n        address uniRouter_,\n        address hamToken_,\n        address beneficiary_,\n        address[] memory farms\n    )\n        public\n    {\n        uniFactory = uniFactory_;\n        uniRouter = uniRouter_;\n        hamToken = HamToken(hamToken_);\n        beneficiary = beneficiary_;\n        farmsToTax = farms;\n    }\n\n    function addFarm(address farm) external {\n        require(farm != address(0), \"!nonzero\");\n        farmsToTax.push(farm);\n    }\n\n    function collectTaxes() external {\n        for (uint256 i = 0; i < farmsToTax.length; i++) {\n            FarmPool(farmsToTax[i]).withdrawTax();\n        }\n        address uniswap_pair = UniswapV2Library.pairFor(uniFactory, weth, address(hamToken));\n        UniswapPair pair = UniswapPair(uniswap_pair);\n        (uint256 reserves1, uint256 reserves2, ) = pair.getReserves();\n        uint256 balance = hamToken.balanceOf(address(this));\n        uint256 amountOut = IUniswapV2Router01(uniRouter).getAmountOut(balance, reserves1, reserves2);\n        address[] memory path = new address[](2);\n        path[0] = address(hamToken);\n        path[1] = weth;\n        uint256[] memory amounts = IUniswapV2Router01(uniRouter).swapTokensForExactETH(balance, amountOut, path, beneficiary, block.timestamp);\n        emit TaxesCollected(amounts[0], amounts[1]);\n    }\n}\n",
  "sourcePath": "/home/kiwi/Documents/Ham/ham-protocol/contracts/reserves/HAMTaxCollector.sol",
  "compiler": {
    "name": "solc",
    "version": "0.5.17+commit.d19bba13.Linux.g++"
  },
  "schemaVersion": "3.2.4",
  "updatedAt": "2020-09-02T18:05:29.525Z",
  "devdoc": {
    "methods": {}
  },
  "userdoc": {
    "methods": {}
  }
}