{
  "contractName": "RebaseOracle",
  "abi": [
    {
      "inputs": [
        {
          "internalType": "address",
          "name": "_uni_factory",
          "type": "address"
        },
        {
          "internalType": "address",
          "name": "_rebaser",
          "type": "address"
        }
      ],
      "payable": false,
      "stateMutability": "nonpayable",
      "type": "constructor"
    },
    {
      "constant": true,
      "inputs": [],
      "name": "gov",
      "outputs": [
        {
          "internalType": "address",
          "name": "",
          "type": "address"
        }
      ],
      "payable": false,
      "stateMutability": "view",
      "type": "function"
    },
    {
      "constant": true,
      "inputs": [],
      "name": "rebaser",
      "outputs": [
        {
          "internalType": "address",
          "name": "",
          "type": "address"
        }
      ],
      "payable": false,
      "stateMutability": "view",
      "type": "function"
    },
    {
      "constant": true,
      "inputs": [],
      "name": "targetBlockTimestampLast",
      "outputs": [
        {
          "internalType": "uint32",
          "name": "",
          "type": "uint32"
        }
      ],
      "payable": false,
      "stateMutability": "view",
      "type": "function"
    },
    {
      "constant": true,
      "inputs": [],
      "name": "targetCumulativePriceLast",
      "outputs": [
        {
          "internalType": "uint256",
          "name": "",
          "type": "uint256"
        }
      ],
      "payable": false,
      "stateMutability": "view",
      "type": "function"
    },
    {
      "constant": true,
      "inputs": [],
      "name": "targetPair",
      "outputs": [
        {
          "internalType": "address",
          "name": "",
          "type": "address"
        }
      ],
      "payable": false,
      "stateMutability": "view",
      "type": "function"
    },
    {
      "constant": true,
      "inputs": [],
      "name": "timeOfTWAPInit",
      "outputs": [
        {
          "internalType": "uint32",
          "name": "",
          "type": "uint32"
        }
      ],
      "payable": false,
      "stateMutability": "view",
      "type": "function"
    },
    {
      "constant": true,
      "inputs": [],
      "name": "tokenBlockTimestampLast",
      "outputs": [
        {
          "internalType": "uint32",
          "name": "",
          "type": "uint32"
        }
      ],
      "payable": false,
      "stateMutability": "view",
      "type": "function"
    },
    {
      "constant": true,
      "inputs": [],
      "name": "tokenCumulativePriceLast",
      "outputs": [
        {
          "internalType": "uint256",
          "name": "",
          "type": "uint256"
        }
      ],
      "payable": false,
      "stateMutability": "view",
      "type": "function"
    },
    {
      "constant": true,
      "inputs": [],
      "name": "tokenPair",
      "outputs": [
        {
          "internalType": "address",
          "name": "",
          "type": "address"
        }
      ],
      "payable": false,
      "stateMutability": "view",
      "type": "function"
    },
    {
      "constant": true,
      "inputs": [],
      "name": "uni_factory",
      "outputs": [
        {
          "internalType": "address",
          "name": "",
          "type": "address"
        }
      ],
      "payable": false,
      "stateMutability": "view",
      "type": "function"
    },
    {
      "constant": false,
      "inputs": [
        {
          "internalType": "address",
          "name": "_tokenAddress",
          "type": "address"
        },
        {
          "internalType": "address",
          "name": "_pairedAddress",
          "type": "address"
        }
      ],
      "name": "setTokenPair",
      "outputs": [],
      "payable": false,
      "stateMutability": "nonpayable",
      "type": "function"
    },
    {
      "constant": false,
      "inputs": [
        {
          "internalType": "address",
          "name": "_targetAddress",
          "type": "address"
        },
        {
          "internalType": "address",
          "name": "_pairedAddress",
          "type": "address"
        }
      ],
      "name": "setTargetPair",
      "outputs": [],
      "payable": false,
      "stateMutability": "nonpayable",
      "type": "function"
    },
    {
      "constant": false,
      "inputs": [],
      "name": "initTWAP",
      "outputs": [
        {
          "internalType": "uint32",
          "name": "",
          "type": "uint32"
        }
      ],
      "payable": false,
      "stateMutability": "nonpayable",
      "type": "function"
    },
    {
      "constant": false,
      "inputs": [],
      "name": "currentTokenPrice",
      "outputs": [
        {
          "internalType": "uint256",
          "name": "",
          "type": "uint256"
        },
        {
          "internalType": "uint32",
          "name": "",
          "type": "uint32"
        }
      ],
      "payable": false,
      "stateMutability": "nonpayable",
      "type": "function"
    },
    {
      "constant": false,
      "inputs": [],
      "name": "currentTargetPrice",
      "outputs": [
        {
          "internalType": "uint256",
          "name": "",
          "type": "uint256"
        },
        {
          "internalType": "uint32",
          "name": "",
          "type": "uint32"
        }
      ],
      "payable": false,
      "stateMutability": "nonpayable",
      "type": "function"
    },
    {
      "constant": true,
      "inputs": [],
      "name": "getCurrentTokenTWAP",
      "outputs": [
        {
          "internalType": "uint256",
          "name": "",
          "type": "uint256"
        },
        {
          "internalType": "uint32",
          "name": "",
          "type": "uint32"
        }
      ],
      "payable": false,
      "stateMutability": "view",
      "type": "function"
    },
    {
      "constant": true,
      "inputs": [],
      "name": "getCurrentTargetTWAP",
      "outputs": [
        {
          "internalType": "uint256",
          "name": "",
          "type": "uint256"
        },
        {
          "internalType": "uint32",
          "name": "",
          "type": "uint32"
        }
      ],
      "payable": false,
      "stateMutability": "view",
      "type": "function"
    }
  ],
  "bytecode": "0x60806040523480156200001157600080fd5b5060405162001abf38038062001abf833981016040819052620000349162000084565b600480546001600160a01b03199081163317909155600680546001600160a01b0394851690831617905560058054929093169116179055620000ef565b80516200007e81620000d5565b92915050565b600080604083850312156200009857600080fd5b6000620000a6858562000071565b9250506020620000b98582860162000071565b9150509250929050565b60006001600160a01b0382166200007e565b620000e081620000c3565b8114620000ec57600080fd5b50565b6119c080620000ff6000396000f3fe608060405234801561001057600080fd5b506004361061011b5760003560e01c8063a7630da0116100b2578063c6c6c5ab11610081578063d44aa45211610066578063d44aa452146101e6578063d702ffd0146101ee578063ee16c160146101f65761011b565b8063c6c6c5ab146101d6578063cd877826146101de5761011b565b8063a7630da01461019e578063b356055f146101a6578063b517f7cb146101ae578063c6691b3e146101c35761011b565b806371b3659e116100ee57806371b3659e1461017057806379b9268e146101865780638104d4681461018e5780639875142a146101965761011b565b806311fd8a831461012057806312d43a511461013e5780633576fadf146101465780634c0559681461015b575b600080fd5b6101286101fe565b60405161013591906117dc565b60405180910390f35b61012861021a565b61014e610236565b60405161013591906118aa565b61016361023c565b60405161013591906118da565b610178610268565b6040516101359291906118b8565b610178610428565b61014e610505565b61017861050b565b6101636105c1565b6101786105e9565b6101c16101bc366004611326565b610729565b005b6101c16101d1366004611326565b61095d565b610128610b92565b610163610bae565b610163610bd2565b610128610d65565b610128610d81565b60055473ffffffffffffffffffffffffffffffffffffffff1681565b60045473ffffffffffffffffffffffffffffffffffffffff1681565b60005481565b6006547c0100000000000000000000000000000000000000000000000000000000900463ffffffff1681565b600554600090819073ffffffffffffffffffffffffffffffffffffffff1633146102c7576040517f08c379a00000000000000000000000000000000000000000000000000000000081526004016102be906117fa565b60405180910390fd5b60025473ffffffffffffffffffffffffffffffffffffffff16610316576040517f08c379a00000000000000000000000000000000000000000000000000000000081526004016102be906117ea565b60025460075460009182916103449173ffffffffffffffffffffffffffffffffffffffff169060ff16610d9d565b60068054600084905563ffffffff80841678010000000000000000000000000000000000000000000000009081027fffffffff00000000ffffffffffffffffffffffffffffffffffffffffffffffff84161790935593955091935090041681036103ac6112d5565b60405180602001604052808363ffffffff166000548703816103ca57fe5b047bffffffffffffffffffffffffffffffffffffffffffffffffffffffff16815250905061040861040382670de0b6b3a7640000610fe4565b611074565b71ffffffffffffffffffffffffffffffffffff1695509193505050509091565b600354600090819073ffffffffffffffffffffffffffffffffffffffff1661047c576040517f08c379a00000000000000000000000000000000000000000000000000000000081526004016102be906117ea565b60035460075460009182916104af9173ffffffffffffffffffffffffffffffffffffffff1690610100900460ff16610d9d565b60065491935091507c0100000000000000000000000000000000000000000000000000000000900463ffffffff1681036104e76112d5565b60405180602001604052808363ffffffff166001548703816103ca57fe5b60015481565b600254600090819073ffffffffffffffffffffffffffffffffffffffff1661055f576040517f08c379a00000000000000000000000000000000000000000000000000000000081526004016102be906117ea565b600254600754600091829161058d9173ffffffffffffffffffffffffffffffffffffffff169060ff16610d9d565b60065491935091507801000000000000000000000000000000000000000000000000900463ffffffff1681036103ac6112d5565b6006547801000000000000000000000000000000000000000000000000900463ffffffff1681565b600554600090819073ffffffffffffffffffffffffffffffffffffffff16331461063f576040517f08c379a00000000000000000000000000000000000000000000000000000000081526004016102be906117fa565b60035473ffffffffffffffffffffffffffffffffffffffff1661068e576040517f08c379a00000000000000000000000000000000000000000000000000000000081526004016102be906117ea565b60035460075460009182916106c19173ffffffffffffffffffffffffffffffffffffffff1690610100900460ff16610d9d565b60068054600184905563ffffffff8084167c01000000000000000000000000000000000000000000000000000000009081027bffffffffffffffffffffffffffffffffffffffffffffffffffffffff84161790935593955091935090041681036104e76112d5565b60045473ffffffffffffffffffffffffffffffffffffffff16331461077a576040517f08c379a00000000000000000000000000000000000000000000000000000000081526004016102be9061180a565b73ffffffffffffffffffffffffffffffffffffffff8216158015906107b4575073ffffffffffffffffffffffffffffffffffffffff811615155b6107ea576040517f08c379a00000000000000000000000000000000000000000000000000000000081526004016102be9061185a565b8073ffffffffffffffffffffffffffffffffffffffff168273ffffffffffffffffffffffffffffffffffffffff161415610850576040517f08c379a00000000000000000000000000000000000000000000000000000000081526004016102be9061181a565b60008061085d848461107b565b915091508373ffffffffffffffffffffffffffffffffffffffff168273ffffffffffffffffffffffffffffffffffffffff1614156108c557600780547fffffffffffffffffffffffffffffffffffffffffffffffffffffffffffffff001660011790556108ee565b600780547fffffffffffffffffffffffffffffffffffffffffffffffffffffffffffffff001690555b6006546109129073ffffffffffffffffffffffffffffffffffffffff16838361117a565b600280547fffffffffffffffffffffffff00000000000000000000000000000000000000001673ffffffffffffffffffffffffffffffffffffffff9290921691909117905550505050565b60045473ffffffffffffffffffffffffffffffffffffffff1633146109ae576040517f08c379a00000000000000000000000000000000000000000000000000000000081526004016102be9061180a565b73ffffffffffffffffffffffffffffffffffffffff8216158015906109e8575073ffffffffffffffffffffffffffffffffffffffff811615155b610a1e576040517f08c379a00000000000000000000000000000000000000000000000000000000081526004016102be9061185a565b8073ffffffffffffffffffffffffffffffffffffffff168273ffffffffffffffffffffffffffffffffffffffff161415610a84576040517f08c379a00000000000000000000000000000000000000000000000000000000081526004016102be9061181a565b600080610a91848461107b565b915091508373ffffffffffffffffffffffffffffffffffffffff168273ffffffffffffffffffffffffffffffffffffffff161415610afa57600780547fffffffffffffffffffffffffffffffffffffffffffffffffffffffffffff00ff16610100179055610b23565b600780547fffffffffffffffffffffffffffffffffffffffffffffffffffffffffffff00ff1690555b600654610b479073ffffffffffffffffffffffffffffffffffffffff16838361117a565b600380547fffffffffffffffffffffffff00000000000000000000000000000000000000001673ffffffffffffffffffffffffffffffffffffffff9290921691909117905550505050565b60035473ffffffffffffffffffffffffffffffffffffffff1681565b60065474010000000000000000000000000000000000000000900463ffffffff1681565b60055460009073ffffffffffffffffffffffffffffffffffffffff163314610c26576040517f08c379a00000000000000000000000000000000000000000000000000000000081526004016102be906117fa565b60065474010000000000000000000000000000000000000000900463ffffffff1615610c7e576040517f08c379a00000000000000000000000000000000000000000000000000000000081526004016102be9061188a565b6000610c88610268565b91505060008163ffffffff1611610ccb576040517f08c379a00000000000000000000000000000000000000000000000000000000081526004016102be9061182a565b6000610cd56105e9565b91505060008163ffffffff1611610d18576040517f08c379a00000000000000000000000000000000000000000000000000000000081526004016102be9061184a565b50600680547fffffffffffffffff00000000ffffffffffffffffffffffffffffffffffffffff167401000000000000000000000000000000000000000063ffffffff841602179055919050565b60065473ffffffffffffffffffffffffffffffffffffffff1681565b60025473ffffffffffffffffffffffffffffffffffffffff1681565b600080610da8611208565b905060008060008673ffffffffffffffffffffffffffffffffffffffff16630902f1ac6040518163ffffffff1660e01b815260040160606040518083038186803b158015610df557600080fd5b505afa158015610e09573d6000803e3d6000fd5b505050506040513d601f19601f82011682018060405250610e2d9190810190611360565b9250925092508515610f0c578673ffffffffffffffffffffffffffffffffffffffff16635909c0d56040518163ffffffff1660e01b815260040160206040518083038186803b158015610e7f57600080fd5b505afa158015610e93573d6000803e3d6000fd5b505050506040513d601f19601f82011682018060405250610eb791908101906113ad565b94508363ffffffff168163ffffffff1614610f075780840363ffffffff8116610ee08486611212565b517bffffffffffffffffffffffffffffffffffffffffffffffffffffffff16029590950194505b610fda565b8673ffffffffffffffffffffffffffffffffffffffff16635a3d54936040518163ffffffff1660e01b815260040160206040518083038186803b158015610f5257600080fd5b505afa158015610f66573d6000803e3d6000fd5b505050506040513d601f19601f82011682018060405250610f8a91908101906113ad565b94508363ffffffff168163ffffffff1614610fda5780840363ffffffff8116610fb38585611212565b517bffffffffffffffffffffffffffffffffffffffffffffffffffffffff16029590950194505b5050509250929050565b610fec6112e7565b600082158061102757505082517bffffffffffffffffffffffffffffffffffffffffffffffffffffffff168281029083828161102457fe5b04145b61105d576040517f08c379a00000000000000000000000000000000000000000000000000000000081526004016102be9061186a565b604080516020810190915290815290505b92915050565b5160701c90565b6000808273ffffffffffffffffffffffffffffffffffffffff168473ffffffffffffffffffffffffffffffffffffffff1614156110e4576040517f08c379a00000000000000000000000000000000000000000000000000000000081526004016102be9061183a565b8273ffffffffffffffffffffffffffffffffffffffff168473ffffffffffffffffffffffffffffffffffffffff161061111e578284611121565b83835b909250905073ffffffffffffffffffffffffffffffffffffffff8216611173576040517f08c379a00000000000000000000000000000000000000000000000000000000081526004016102be9061187a565b9250929050565b6000806000611189858561107b565b915091508582826040516020016111a1929190611780565b604051602081830303815290604052805190602001206040516020016111c89291906117a6565b604080517fffffffffffffffffffffffffffffffffffffffffffffffffffffffffffffffe081840301815291905280516020909101209695505050505050565b63ffffffff421690565b61121a6112d5565b6000826dffffffffffffffffffffffffffff1611611264576040517f08c379a00000000000000000000000000000000000000000000000000000000081526004016102be9061189a565b6040805160208101909152806dffffffffffffffffffffffffffff84167bffffffffffffffffffffffffffff0000000000000000000000000000607087901b16816112ab57fe5b047bffffffffffffffffffffffffffffffffffffffffffffffffffffffff16815250905092915050565b60408051602081019091526000815290565b6040518060200160405280600081525090565b803561106e8161194b565b805161106e81611962565b805161106e8161196b565b805161106e81611974565b6000806040838503121561133957600080fd5b600061134585856112fa565b9250506020611356858286016112fa565b9150509250929050565b60008060006060848603121561137557600080fd5b60006113818686611305565b935050602061139286828701611305565b92505060406113a38682870161131b565b9150509250925092565b6000602082840312156113bf57600080fd5b60006113cb8484611310565b949350505050565b6113dc816118f6565b82525050565b6113dc6113ee826118f6565b611939565b6113dc6113ff82611901565b611901565b6000611411600c836118e8565b7f21696e697469616c697a65640000000000000000000000000000000000000000815260200192915050565b600061144a6008836118e8565b7f2172656261736572000000000000000000000000000000000000000000000000815260200192915050565b60006114836004836118e8565b7f21676f7600000000000000000000000000000000000000000000000000000000815260200192915050565b60006114bc6004836118e8565b7f73616d6500000000000000000000000000000000000000000000000000000000815260200192915050565b60006114f5600f836118e8565b7f6e6f2074726164657320746f6b656e0000000000000000000000000000000000815260200192915050565b600061152e6025836118e8565b7f556e697377617056324c6962726172793a204944454e544943414c5f4144445281527f4553534553000000000000000000000000000000000000000000000000000000602082015260400192915050565b600061158d6010836118e8565b7f6e6f207472616465732074617267657400000000000000000000000000000000815260200192915050565b60006115c66020836118f1565b7f96e8ac4277198ff8b6f785478aa9a39f403cb768dd02cbee326c3e7da348845f815260200192915050565b60006115ff6001836118f1565b7fff00000000000000000000000000000000000000000000000000000000000000815260010192915050565b60006116386005836118e8565b7f217a65726f000000000000000000000000000000000000000000000000000000815260200192915050565b60006116716023836118e8565b7f4669786564506f696e743a204d554c5449504c49434154494f4e5f4f5645524681527f4c4f570000000000000000000000000000000000000000000000000000000000602082015260400192915050565b60006116d0601e836118e8565b7f556e697377617056324c6962726172793a205a45524f5f414444524553530000815260200192915050565b60006117096011836118e8565b7f616c726561647920616374697661746564000000000000000000000000000000815260200192915050565b60006117426017836118e8565b7f4669786564506f696e743a204449565f42595f5a45524f000000000000000000815260200192915050565b6113dc81611901565b6113dc81611930565b600061178c82856113e2565b60148201915061179c82846113e2565b5060140192915050565b60006117b1826115f2565b91506117bd82856113e2565b6014820191506117cd82846113f3565b6020820191506113cb826115b9565b6020810161106e82846113d3565b6020808252810161106e81611404565b6020808252810161106e8161143d565b6020808252810161106e81611476565b6020808252810161106e816114af565b6020808252810161106e816114e8565b6020808252810161106e81611521565b6020808252810161106e81611580565b6020808252810161106e8161162b565b6020808252810161106e81611664565b6020808252810161106e816116c3565b6020808252810161106e816116fc565b6020808252810161106e81611735565b6020810161106e828461176e565b604081016118c6828561176e565b6118d36020830184611777565b9392505050565b6020810161106e8284611777565b90815260200190565b919050565b600061106e82611917565b90565b6dffffffffffffffffffffffffffff1690565b73ffffffffffffffffffffffffffffffffffffffff1690565b63ffffffff1690565b600061106e82600061106e8260601b90565b611954816118f6565b811461195f57600080fd5b50565b61195481611904565b61195481611901565b6119548161193056fea365627a7a72315820932f7a5abba9cb903a24b393bc65fcdffafbff1539c14257b82da29ab2ac60f76c6578706572696d656e74616cf564736f6c63430005110040",
  "source": "pragma solidity ^0.5.17;\npragma experimental ABIEncoderV2;\n\nimport '../lib/IUniswapV2Pair.sol';\nimport \"../lib/UniswapV2Library.sol\";\nimport \"../lib/UniswapV2OracleLibrary.sol\";\n\ncontract RebaseOracle {\n\n    uint256 constant BASE = 10**18;\n    uint256 public tokenCumulativePriceLast;\n    uint256 public targetCumulativePriceLast;\n\n    address public tokenPair;\n    address public targetPair;\n\n    address public gov;\n    address public rebaser;\n    address public uni_factory;\n\n    uint32 public timeOfTWAPInit;\n    uint32 public tokenBlockTimestampLast;\n    uint32 public targetBlockTimestampLast;\n\n    bool isToken0;\n    bool isTarget0;\n\n    modifier onlyGov() {\n        require(msg.sender == gov, \"!gov\");\n        _;\n    }\n\n    modifier onlyRebaser() {\n        require(msg.sender == rebaser, \"!rebaser\");\n        _;\n    }\n\n    constructor(address _uni_factory, address _rebaser) public {\n        gov = msg.sender;\n        uni_factory = _uni_factory;\n        rebaser = _rebaser;\n    }\n\n    function setTokenPair(address _tokenAddress, address _pairedAddress)\n        public\n        onlyGov\n    {\n        require(_tokenAddress != address(0) && _pairedAddress != address(0), \"!zero\");\n        require(_tokenAddress != _pairedAddress, \"same\");\n        (address token0, address token1) = UniswapV2Library.sortTokens(_tokenAddress, _pairedAddress);\n        // Used for interacting with uniswap\n        if (token0 == _tokenAddress) {\n            isToken0 = true;\n        } else {\n            isToken0 = false;\n        }\n\n        tokenPair = UniswapV2Library.pairFor(uni_factory, token0, token1);\n    }\n\n    //\n    //    // Uniswap ETH/DAI pair\n    //    address dai = 0x6B175474E89094C44Da98b954EedeAC495271d0F;\n    //    address weth = 0xC02aaA39b223FE8D0A0e5C4F27eAD9083C756Cc2;\n    function setTargetPair(address _targetAddress, address _pairedAddress)\n        public\n        onlyGov\n    {\n        require(_targetAddress != address(0) && _pairedAddress != address(0), \"!zero\");\n        require(_targetAddress != _pairedAddress, \"same\");\n        (address token0, address token1) = UniswapV2Library.sortTokens(_targetAddress, _pairedAddress);\n        // Used for interacting with uniswap\n        if (token0 == _targetAddress) {\n            isTarget0 = true;\n        } else {\n            isTarget0 = false;\n        }\n\n        targetPair = UniswapV2Library.pairFor(uni_factory, token0, token1);\n    }\n\n    function initTWAP() external onlyRebaser returns (uint32) {\n        require(timeOfTWAPInit == 0, \"already activated\");\n        (, uint32 tokenBlockTimestamp) = currentTokenPrice();\n        require(tokenBlockTimestamp > 0, \"no trades token\");\n        (, uint32 targetBlockTimestamp) = currentTargetPrice();\n        require(targetBlockTimestamp > 0, \"no trades target\");\n\n        timeOfTWAPInit = tokenBlockTimestamp;\n        return tokenBlockTimestamp;\n    }\n\n    function currentTokenPrice() public onlyRebaser returns (uint256, uint32) {\n        require(tokenPair != address(0), \"!initialized\");\n        (uint cumulativePrice, uint32 blockTimestamp) = UniswapV2OracleLibrary.currentCumulativePrices(tokenPair, isToken0);\n        uint32 timeElapsed = blockTimestamp - tokenBlockTimestampLast; // overflow is desired\n\n        tokenCumulativePriceLast = cumulativePrice;\n        tokenBlockTimestampLast = blockTimestamp;\n\n        // cumulative price is in (uq112x112 price * seconds) units so we simply wrap it after division by time elapsed\n        FixedPoint.uq112x112 memory priceAverage = FixedPoint.uq112x112(uint224((cumulativePrice - tokenCumulativePriceLast) / timeElapsed));\n\n        return (FixedPoint.decode144(FixedPoint.mul(priceAverage, BASE)), blockTimestamp);\n    }\n\n    function currentTargetPrice() public onlyRebaser returns (uint256, uint32) {\n        require(targetPair != address(0), \"!initialized\");\n        (uint cumulativePrice, uint32 blockTimestamp) = UniswapV2OracleLibrary.currentCumulativePrices(targetPair, isTarget0);\n        uint32 timeElapsed = blockTimestamp - targetBlockTimestampLast; // overflow is desired\n\n        targetCumulativePriceLast = cumulativePrice;\n        targetBlockTimestampLast = blockTimestamp;\n\n        // cumulative price is in (uq112x112 price * seconds) units so we simply wrap it after division by time elapsed\n        FixedPoint.uq112x112 memory priceAverage = FixedPoint.uq112x112(uint224((cumulativePrice - targetCumulativePriceLast) / timeElapsed));\n\n        return (FixedPoint.decode144(FixedPoint.mul(priceAverage, BASE)), blockTimestamp);\n    }\n\n    function getCurrentTokenTWAP() external view returns (uint256, uint32) {\n        require(tokenPair != address(0), \"!initialized\");\n        (uint cumulativePrice, uint32 blockTimestamp) = UniswapV2OracleLibrary.currentCumulativePrices(tokenPair, isToken0);\n        uint32 timeElapsed = blockTimestamp - tokenBlockTimestampLast; // overflow is desired\n\n        // cumulative price is in (uq112x112 price * seconds) units so we simply wrap it after division by time elapsed\n        FixedPoint.uq112x112 memory priceAverage = FixedPoint.uq112x112(uint224((cumulativePrice - tokenCumulativePriceLast) / timeElapsed));\n\n        return (FixedPoint.decode144(FixedPoint.mul(priceAverage, BASE)), blockTimestamp);\n    }\n\n    function getCurrentTargetTWAP() external view returns (uint256, uint32) {\n        require(targetPair != address(0), \"!initialized\");\n        (uint cumulativePrice, uint32 blockTimestamp) = UniswapV2OracleLibrary.currentCumulativePrices(targetPair, isTarget0);\n        uint32 timeElapsed = blockTimestamp - targetBlockTimestampLast; // overflow is desired\n\n        // cumulative price is in (uq112x112 price * seconds) units so we simply wrap it after division by time elapsed\n        FixedPoint.uq112x112 memory priceAverage = FixedPoint.uq112x112(uint224((cumulativePrice - targetCumulativePriceLast) / timeElapsed));\n\n        return (FixedPoint.decode144(FixedPoint.mul(priceAverage, BASE)), blockTimestamp);\n    }\n}",
  "sourcePath": "/home/kiwi/Documents/Ham/ham-protocol/contracts/rebaser/RebaseOracle.sol",
  "compiler": {
    "name": "solc",
    "version": "0.5.17+commit.d19bba13.Linux.g++"
  },
  "schemaVersion": "3.2.4",
  "updatedAt": "2020-09-07T07:29:05.002Z",
  "devdoc": {
    "methods": {}
  },
  "userdoc": {
    "methods": {}
  }
}